{
  "contractName": "BookAppointment",
  "abi": [
    {
      "inputs": [],
      "payable": false,
      "stateMutability": "nonpayable",
      "type": "constructor"
    },
    {
      "anonymous": false,
      "inputs": [
        {
          "indexed": false,
          "internalType": "uint256",
          "name": "appointmentId",
          "type": "uint256"
        },
        {
          "indexed": false,
          "internalType": "uint256",
          "name": "appointmentDate",
          "type": "uint256"
        },
        {
          "indexed": false,
          "internalType": "uint256",
          "name": "appointmentTime",
          "type": "uint256"
        }
      ],
      "name": "AppointmentConfirm",
      "type": "event"
    },
    {
      "constant": true,
      "inputs": [
        {
          "internalType": "uint256",
          "name": "",
          "type": "uint256"
        }
      ],
      "name": "appointments",
      "outputs": [
        {
          "internalType": "uint256",
          "name": "apptDate",
          "type": "uint256"
        },
        {
          "internalType": "uint256",
          "name": "apptTime",
          "type": "uint256"
        }
      ],
      "payable": false,
      "stateMutability": "view",
      "type": "function"
    },
    {
      "constant": true,
      "inputs": [],
      "name": "apptCost",
      "outputs": [
        {
          "internalType": "uint256",
          "name": "",
          "type": "uint256"
        }
      ],
      "payable": false,
      "stateMutability": "view",
      "type": "function"
    },
    {
      "constant": true,
      "inputs": [
        {
          "internalType": "uint256",
          "name": "",
          "type": "uint256"
        }
      ],
      "name": "apptToPatient",
      "outputs": [
        {
          "internalType": "address",
          "name": "",
          "type": "address"
        }
      ],
      "payable": false,
      "stateMutability": "view",
      "type": "function"
    },
    {
      "constant": true,
      "inputs": [
        {
          "internalType": "address",
          "name": "",
          "type": "address"
        }
      ],
      "name": "patientApptCount",
      "outputs": [
        {
          "internalType": "uint256",
          "name": "",
          "type": "uint256"
        }
      ],
      "payable": false,
      "stateMutability": "view",
      "type": "function"
    },
    {
      "constant": false,
      "inputs": [
        {
          "internalType": "uint256",
          "name": "_apptDate",
          "type": "uint256"
        },
        {
          "internalType": "uint256",
          "name": "_apptTime",
          "type": "uint256"
        }
      ],
      "name": "createAppointment",
      "outputs": [],
      "payable": true,
      "stateMutability": "payable",
      "type": "function"
    },
    {
      "constant": false,
      "inputs": [],
      "name": "receiveEther",
      "outputs": [],
      "payable": false,
      "stateMutability": "nonpayable",
      "type": "function"
    },
    {
      "constant": false,
      "inputs": [
        {
          "internalType": "uint256",
          "name": "_id",
          "type": "uint256"
        }
      ],
      "name": "cancelAppointment",
      "outputs": [
        {
          "internalType": "bool",
          "name": "success",
          "type": "bool"
        }
      ],
      "payable": false,
      "stateMutability": "nonpayable",
      "type": "function"
    }
  ],
  "bytecode": "0x608060405234801561001057600080fd5b5033600160006101000a81548173ffffffffffffffffffffffffffffffffffffffff021916908373ffffffffffffffffffffffffffffffffffffffff160217905550600a6000819055506106e2806100696000396000f3fe6080604052600436106100705760003560e01c8063255363301161004e5780632553633014610168578063a3912ec8146101e3578063a4225d5b146101fa578063a7e644051461022557610070565b806312dc9013146100755780631359fd0e146100cb5780632536f0bb14610103575b600080fd5b34801561008157600080fd5b506100ae6004803603602081101561009857600080fd5b8101908080359060200190929190505050610278565b604051808381526020018281526020019250505060405180910390f35b610101600480360360408110156100e157600080fd5b8101908080359060200190929190803590602001909291905050506102a9565b005b34801561010f57600080fd5b506101526004803603602081101561012657600080fd5b81019080803573ffffffffffffffffffffffffffffffffffffffff169060200190929190505050610311565b6040518082815260200191505060405180910390f35b34801561017457600080fd5b506101a16004803603602081101561018b57600080fd5b8101908080359060200190929190505050610329565b604051808273ffffffffffffffffffffffffffffffffffffffff1673ffffffffffffffffffffffffffffffffffffffff16815260200191505060405180910390f35b3480156101ef57600080fd5b506101f861035c565b005b34801561020657600080fd5b5061020f610421565b6040518082815260200191505060405180910390f35b34801561023157600080fd5b5061025e6004803603602081101561024857600080fd5b8101908080359060200190929190505050610427565b604051808215151515815260200191505060405180910390f35b6002818154811061028557fe5b90600052602060002090600202016000915090508060000154908060010154905082565b6000600460003373ffffffffffffffffffffffffffffffffffffffff1673ffffffffffffffffffffffffffffffffffffffff16815260200190815260200160002054146102f557600080fd5b600054341461030357600080fd5b61030d8282610564565b5050565b60046020528060005260406000206000915090505481565b60036020528060005260406000206000915054906101000a900473ffffffffffffffffffffffffffffffffffffffff1681565b600160009054906101000a900473ffffffffffffffffffffffffffffffffffffffff1673ffffffffffffffffffffffffffffffffffffffff163373ffffffffffffffffffffffffffffffffffffffff16146103b657600080fd5b600160009054906101000a900473ffffffffffffffffffffffffffffffffffffffff1673ffffffffffffffffffffffffffffffffffffffff166108fc479081150290604051600060405180830381858888f1935050505015801561041e573d6000803e3d6000fd5b50565b60005481565b60006001600460003373ffffffffffffffffffffffffffffffffffffffff1673ffffffffffffffffffffffffffffffffffffffff168152602001908152602001600020541461047557600080fd5b3373ffffffffffffffffffffffffffffffffffffffff166003600084815260200190815260200160002060009054906101000a900473ffffffffffffffffffffffffffffffffffffffff1673ffffffffffffffffffffffffffffffffffffffff16146104e057600080fd5b6000600460003373ffffffffffffffffffffffffffffffffffffffff1673ffffffffffffffffffffffffffffffffffffffff168152602001908152602001600020819055506003600083815260200190815260200160002060006101000a81549073ffffffffffffffffffffffffffffffffffffffff021916905560019050919050565b6000600260405180604001604052808581526020018481525090806001815401808255809150509060018203906000526020600020906002020160009091929091909150600082015181600001556020820151816001015550509050336003600083815260200190815260200160002060006101000a81548173ffffffffffffffffffffffffffffffffffffffff021916908373ffffffffffffffffffffffffffffffffffffffff160217905550600460003373ffffffffffffffffffffffffffffffffffffffff1673ffffffffffffffffffffffffffffffffffffffff168152602001908152602001600020600081548092919060010191905055507fcd69a4c0734d4e509396605489049844277672eae36e1e34e2376e8d3801ac3781848460405180848152602001838152602001828152602001935050505060405180910390a150505056fea265627a7a7231582063d8c355b6971bd5307e27c139ab3ecc08ba00fc94ab575ad07efe0ac783cb2e64736f6c63430005100032",
  "source": "pragma solidity ^0.5.0;\r\n\r\ncontract BookAppointment{\r\n    //appointment is the ERC 721 token\r\n    uint public apptCost;\r\n    address payable admin;\r\n\r\n    constructor() public {\r\n        admin = msg.sender; \r\n        apptCost = 10;\r\n        \r\n    }\r\n\r\n\r\n    event AppointmentConfirm(uint appointmentId, uint appointmentDate, uint appointmentTime );\r\n\r\n    struct Appointment {\r\n        uint apptDate ;\r\n        uint apptTime ;\r\n    }\r\n\r\n    Appointment[] public appointments;\r\n\r\n    mapping (uint => address) public apptToPatient;\r\n    mapping (address => uint) public patientApptCount;\r\n\r\n    \r\n\r\n    function _createAppointment( uint _apptDate, uint _apptTime) internal {\r\n        uint id = appointments.push(Appointment(_apptDate , _apptTime));\r\n        apptToPatient[id] = msg.sender;\r\n        patientApptCount[msg.sender]++;\r\n        emit AppointmentConfirm(id, _apptDate, _apptTime);\r\n    }  \r\n\r\n\r\n    function createAppointment( uint _apptDate, uint _apptTime) public payable {\r\n        require(patientApptCount[msg.sender] == 0);\r\n        require(msg.value == apptCost);\r\n        _createAppointment(_apptDate, _apptTime);\r\n    }\r\n    \r\n    function receiveEther() public {\r\n        require(msg.sender == admin);\r\n        admin.transfer(address(this).balance);\r\n    }\r\n\r\n    function cancelAppointment(uint _id) public returns( bool success) {\r\n        require(patientApptCount[msg.sender] == 1);\r\n        require(apptToPatient[_id] == msg.sender);   \r\n\r\n        patientApptCount[msg.sender] = 0;\r\n        delete apptToPatient[_id];\r\n        return true;\r\n    }\r\n}  ",
  "sourcePath": "/home/buzzlite/Documents/midterm/contracts/BookAppointment.sol",
  "compiler": {
    "name": "solc",
    "version": "0.5.16+commit.9c3226ce.Emscripten.clang"
  },
  "schemaVersion": "3.0.23",
  "updatedAt": "2020-02-23T05:20:11.943Z",
  "devdoc": {
    "methods": {}
  },
  "userdoc": {
    "methods": {}
  }
}